:100000000C9462000C948A000C948A000C948A0070
:100010000C948A000C948A000C948A000C948A0038
:100020000C948A000C948A000C948A000C948A0028
:100030000C948A000C948A000C948A000C948A0018
:100040000C943E070C948A000C940C070C94E60662
:100050000C948A000C948A000C948A000C948A00F8
:100060000C948A000C948A000000000025002800EF
:100070002B0000000000240027002A0000000000E0
:1000800023002600290004040404040404040202DA
:100090000202020203030303030301020408102007
:1000A0004080010204081020010204081020000012
:1000B0000008000201000003040700000000000027
:1000C0000000880711241FBECFEFD8E0DEBFCDBFF0
:1000D00021E0A6E2B1E001C01D92A23EB207E1F725
:1000E00011E0A0E0B1E0EAE7F8E102C005900D926E
:1000F000A632B107D9F710E0C2E6D0E004C02197DC
:10010000FE010E94310AC136D107C9F70E94BF071C
:100110000C943B0C0C940000CF92DF92EF92FF9274
:100120000F931F93CF93DF936C017A018B01C0E093
:10013000D0E0CE15DF0581F0D8016D918D01D6019B
:10014000ED91FC910190F081E02DC6010995892B7C
:1001500011F02196EECF7E01C701DF91CF911F9163
:100160000F91FF90EF90DF90CF900895089580E079
:1001700090E00895FC01538D448D252F30E0842FAD
:1001800090E0821B930B541710F0CF9608950197BF
:100190000895FC01918D828D981761F0828DDF01A9
:1001A000A80FB11D5D968C91928D9F5F9F73928F6A
:1001B00090E008958FEF9FEF0895FC01918D828D5F
:1001C000981731F0828DE80FF11D858D90E008952C
:1001D0008FEF9FEF0895FC01918D228D892F90E084
:1001E000805C9F4F821B91098F739927089581E34B
:1001F00091E00E94EB0021E0892B09F420E0822F9E
:100200000895FC01848DDF01A80FB11DA35ABF4FD3
:100210002C91848D90E001968F739927848FA68905
:10022000B7892C93A089B1898C91837080648C9359
:10023000938D848D981306C00288F389E02D808108
:100240008F7D80830895EF92FF920F931F93CF933A
:10025000DF93EC0181E0888F9B8D8C8D981305C016
:10026000E889F989808185FD26C0F62E0B8D10E086
:100270000F5F1F4F0F731127E02E8C8DE8120CC0FB
:100280000FB607FCFACFE889F989808185FFF5CFA1
:10029000CE010E940101F1CF8B8DFE01E80FF11D0F
:1002A000E35AFF4FF0829FB7F8940B8FEA89FB89DE
:1002B000808180620AC09FB7F894EE89FF896083CD
:1002C000E889F98980818370806480839FBF81E0A1
:1002D00090E0DF91CF911F910F91FF90EF900895E3
:1002E000CF93DF93EC01888D8823C9F0EA89FB89DD
:1002F000808185FD05C0A889B9898C9186FD0FC0D4
:100300000FB607FCF5CF808185FFF2CFA889B989A8
:100310008C9185FFEDCFCE010E940101E7CFDF91E7
:10032000CF91089580E090E0892B29F00E94F7009A
:1003300081110C9400000895833081F028F48130FD
:1003400099F08230A1F008958730A9F08830B9F093
:100350008430D1F4809180008F7D03C08091800033
:100360008F7780938000089584B58F7702C084B51D
:100370008F7D84BD08958091B0008F7703C08091F8
:10038000B0008F7D8093B00008951F93CF93DF93CB
:10039000282F30E0F901E255FF4F8491F901E6562C
:1003A000FF4FD491F901EA57FF4FC491CC23C1F01C
:1003B000162F81110E949C01EC2FF0E0EE0FFF1F21
:1003C000E859FF4FA591B4919FB7F894111104C05B
:1003D0008C91D095D82302C0EC91DE2BDC939FBF8B
:1003E000DF91CF911F910895CF93DF9390E0FC01AF
:1003F000E656FF4F2491FC01EA57FF4F8491882372
:1004000061F190E0880F991FFC01EE58FF4FC591F4
:10041000D491FC01E859FF4FA591B491611109C035
:100420009FB7F8948881209582238883EC912E23AE
:100430000BC0623061F49FB7F8948881322F3095F9
:1004400083238883EC912E2B2C939FBF06C08FB7FC
:10045000F894E8812E2B28838FBFDF91CF910895E8
:100460003FB7F89480912B0190912C01A0912D0120
:10047000B0912E0126B5A89B05C02F3F19F001961B
:10048000A11DB11D3FBFBA2FA92F982F8827820F1A
:10049000911DA11DB11DBC01CD0142E0660F771F6A
:1004A000881F991F4A95D1F708958F929F92AF9216
:1004B000BF92CF92DF92EF92FF926B017C010E947C
:1004C00030024B015C01C114D104E104F104F1F0EC
:1004D0000E943002DC01CB0188199909AA09BB09E5
:1004E000883E9340A105B10570F321E0C21AD108FE
:1004F000E108F10888EE880E83E0981EA11CB11C6B
:10050000C114D104E104F10419F7DDCFFF90EF909D
:10051000DF90CF90BF90AF909F908F900895BC01D7
:100520006E5F7F4FDC01ED91FC910190F081E02D39
:1005300040E0099591E0811190E0892F0895089598
:100540008EBD00000DB407FEFDCF8EB508958CBDA5
:100550009DBD0895DF92EF92FF920F931F93CF936B
:10056000DF938C01F62ED42EE52E83E590E00E94D9
:10057000A70260E0F80186850E94C50182E10E9421
:10058000A002CD2DDE2DCE018F0D911D7C01EC162C
:10059000FD0621F089910E94A002F9CF61E0F801E7
:1005A0008685DF91CF911F910F91FF90EF90DF90A3
:1005B0000C94C5011F93CF93DF93EC01162F83E5B5
:1005C00090E00E94A70260E08E850E94C501812F05
:1005D00080680E94A00280E00E94A002182F61E0C3
:1005E0008E850E94C501812FDF91CF911F910895C3
:1005F0000F931F93CF93DF93EC01062F142F83E506
:1006000090E00E94A70260E08E850E94C501802FC5
:100610000E94A002812F0E94A00261E08E85DF91DE
:10062000CF911F910F910C94C501CF92DF92EF9261
:10063000FF920F931F93CF93DF93EC016B01142F65
:10064000790140E062E00E94F80244E06AE0CE01F5
:100650000E94F80240E864E1CE010E94F802A6017F
:10066000612FCE010E94AA0243E062E0CE010E9407
:10067000F80208E813E16AE0CE010E94DA0282FF84
:1006800013C040E062E0CE010E94F80264E4CE01B3
:100690000E94DA02F701808362E4CE010E94DA024E
:1006A000F701818380E004C00150110921F783E044
:1006B000DF91CF911F910F91FF90EF90DF90CF903E
:1006C00008954F925F926F927F928F929F92AF9216
:1006D000BF92CF92DF92EF92FF920F931F93CF932F
:1006E000DF9300D0CDB7DEB74C012B01D42E3901FA
:1006F000E114F10419F0F701408101C040E0B42E8B
:10070000F0E1CF9EB00C112440E062E0C4010E94F1
:10071000F8024FE768E0C4010E94F80240E864E193
:10072000C4010E94F802A2016D2DC4010E94AA0218
:100730004B2D6AE1C4010E94F8024CE062E0C40162
:100740000E94F8026AE1C4010E94DA02482F406860
:100750006AE1C4010E94F80280ED482E87E0582E1D
:1007600068E0C4010E94DA02982F907341F480FD82
:1007700004C081E0481A510899F783E09EC06CE0FC
:10078000C4010E94DA02D82E837109F093C061146B
:10079000710409F458C00115110509F454C064E14D
:1007A000C4010E94DA02B82EF80180818B1508F48A
:1007B0007BC0B082BB20E1F183E590E00E94A702FC
:1007C00060E0F40186850E94C501BA9482E90E9426
:1007D000A002CC20A9F08FEF90E02C0101C0440CC6
:1007E000CA94EAF782E90E94A002242D2095F30121
:1007F000908192238421892B8083CC24C39401C0CF
:10080000C12C4C2C512C460C571CCB1438F482E9CB
:100810000E94A002F2018083C394F3CF80E00E9483
:10082000A002F201808361E0F40186850E94C50187
:1008300068E1C4010E94DA028770E114F10421F03A
:10084000F701808301C080E0D3FC30C061147104E3
:1008500079F10115110561F1AA2051F1F8014081EA
:10086000413021F4843041F58FEF27C0423020F130
:10087000811122C042509E012F5F3F4FB301C4013E
:100880000E941503811119C0F8018081680E711C46
:10089000F30132979081898198130EC0319690812F
:1008A0008A81981309C004C084E007C082E005C0B3
:1008B00080E003C081E001C087E00F900F90DF91DE
:1008C000CF911F910F91FF90EF90DF90CF90BF904D
:1008D000AF909F908F907F906F905F904F90089512
:1008E0008F929F92AF92CF92EF92FF920F931F93AE
:1008F000CF93DF9300D000D01F92CDB7DEB74C016D
:1009000082E08D8340E064E2C4010E94F80240E08E
:1009100066E2C4010E94F80246E268E4C4010E9453
:10092000F80286E28B838D81823040F16CE1C40154
:100930000E94DA02482F4F776CE1C4010E94F8024E
:1009400087E08C83A12CC12CCE0104967C018E0102
:100950000B5F1F4F9E012F5F3F4F41E0BE016D5F58
:100960007F4FC4010E94610381110BC08D818230D1
:1009700039F481E09C81911104C008C084E001C079
:1009800081E091E0823019F090E001C091E0892F80
:100990000F900F900F900F900F90DF91CF911F91BC
:1009A0000F91FF90EF90CF90AF909F908F90089510
:1009B0002F923F924F925F926F927F928F929F926F
:1009C000AF92BF92CF92DF92EF92FF920F931F935D
:1009D000CF93DF93CDB7DEB72C970FB6F894DEBF79
:1009E0000FBECDBF413508F00BC1342E3B014C0189
:1009F0006CE10E94DA02482F4F776CE1C4010E943B
:100A0000F8022224239432E0231691F083E0281682
:100A1000E1F091E02912F6C083E989833320D1F017
:100A200081E0F3019081953008F480E0B12C17C08B
:100A3000F5E9F983332081F081E0F301908198306A
:100A400008F480E043E0B42E0AC087E9898336E0E9
:100A5000B32E04C0B12C02C023E0B22E80E0D32C10
:100A6000F8E0BF9ED0181124D7FCD12C882321F0A8
:100A700098E89B8333E001C032E021E09D2D977020
:100A800009F420E09D2D959595959595290F31F4C4
:100A9000882309F492C038E0D30E8FC0811102C0C0
:100AA00094E001C093E0291708F4922FEB2DF0E0B9
:100AB0003196E60DF71D232F4191A1E0B0E0AC0F78
:100AC000BD1FA20FB11D4C932F5F422F431B49172F
:100AD00098F3DECF8111DEC09FE19D150CF494C028
:100AE00080E2D82E90E79A839B818C8189279D8113
:100AF00089279E8189278F839E01285F3F4F47E08A
:100B0000BE016F5F7F4FC4010E9415038111A3C016
:100B10001A86E3E0EB87CE0107962C0199E09C87CB
:100B2000CA844C2D4295407F4C0D6AE1C4010E945D
:100B3000F802A12CCE010A967C018E01055F1F4FA1
:100B400092014C85BE016F5F7F4FC4010E9461031B
:100B5000182F823009F0BECF6CE1C4010E94DA0286
:100B600085FD98C08F7109F480E2282F30E04D2D6B
:100B7000DD0C550B421753070CF044C0D82E859559
:100B80008595859591E0980F422F477081E009F493
:100B900080E0890FE1E0F0E0EC0FFD1FE80FF11DB0
:100BA000215031092770332781E090E001C0880F80
:100BB0002A95EAF79081892B80838FE18D150CF4BB
:100BC00091CF9D2D97709A878D2D859585958595CB
:100BD0008E5F292FE0E18E9F200D11242A8321E0D2
:100BE000911101C020E0280F2C8744244394512CFC
:100BF0004C0E5D1E480E511CF9E0F81BFB8790CF90
:100C000016E048C015E046C08B81883809F43FC023
:100C100082E094E0EB2DF0E03196E60DF71D980FA1
:100C2000A1E0B0E0AC0FBD1FA80FB11D2C91219326
:100C30008F5F8913F5CF8B85833029F58A858111E4
:100C400022C09E012D5F3F4F41E0B201C4010E94CE
:100C50001503882311F0182F1DC09B81F20181819B
:100C6000981313C09C81828198130FC0808182FFEA
:100C700002C02394C8CEF3018387822D880F820D92
:100C80008F5F808307C011E005C017E003C083E0D9
:100C900093E0C0CF812F2C960FB6F894DEBF0FBE25
:100CA000CDBFDF91CF911F910F91FF90EF90DF901B
:100CB000CF90BF90AF909F908F907F906F905F90FC
:100CC0004F903F902F9008950E941E0C0F931F93FA
:100CD000CF93DF93EC0188819981009729F02A81D5
:100CE0003B812617370788F48B016F5F7F4F0E9487
:100CF000580B009761F0998388831B830A832C81AA
:100D00003D81232B11F4FC01108281E001C080E0C1
:100D1000DF91CF911F910F910895EF92FF920F9362
:100D20001F93CF93DF936115710511F480E01CC010
:100D300041155105C1F07B01EC018C819D818A0137
:100D4000080F191FB801CE010E946606882371F3AF
:100D5000288139818C819D81B701820F931F0E9468
:100D6000340C1D830C8381E0DF91CF911F910F9193
:100D7000FF90EF900895EF92FF920F931F93CF9300
:100D8000DF93EC017B018A01BA010E94660628818B
:100D9000398181110DC02115310519F0C9010E9459
:100DA000CF0A198218821D821C821B821A8206C0F9
:100DB0001D830C83B701C9010E94340CCE01DF9161
:100DC000CF911F910F91FF90EF9008951F920F9276
:100DD0000FB60F9211242F933F934F935F936F930E
:100DE0007F938F939F93AF93BF93EF93FF9381E391
:100DF00091E00E940101FF91EF91BF91AF919F910E
:100E00008F917F916F915F914F913F912F910F90B3
:100E10000FBE0F901F9018951F920F920FB60F9252
:100E200011242F938F939F93EF93FF93E0914101B0
:100E3000F09142018081E0914701F091480182FDEB
:100E400012C0908180914A018F5F8F7320914B0176
:100E5000821751F0E0914A01F0E0EF5CFE4F958F70
:100E600080934A0101C08081FF91EF919F918F9102
:100E70002F910F900FBE0F901F9018951F920F92F9
:100E80000FB60F9211242F933F938F939F93AF939D
:100E9000BF938091270190912801A0912901B091E1
:100EA0002A013091260123E0230F2D3720F40196EB
:100EB000A11DB11D05C026E8230F0296A11DB11D7D
:100EC000209326018093270190932801A093290164
:100ED000B0932A0180912B0190912C01A0912D01BA
:100EE000B0912E010196A11DB11D80932B0190930D
:100EF0002C01A0932D01B0932E01BF91AF919F9132
:100F00008F913F912F910F900FBE0F901F901895CA
:100F1000E1E3F1E01382128288EE93E0A0E0B0E01A
:100F200084839583A683B7838AE091E0918380834D
:100F300085EC90E09587848784EC90E0978786879E
:100F400080EC90E0918B808B81EC90E0938B828B96
:100F500082EC90E0958B848B86EC90E0978B868B6F
:100F6000118E128E138E148EEEECF1E08CE191E076
:100F7000918380838AE0868789E087870895CF936D
:100F8000DF93CDB7DEB765970FB6F894DEBF0FBE1F
:100F9000CDBF789484B5826084BD84B5816084BD02
:100FA00085B5826085BD85B5816085BD80916E0007
:100FB000816080936E001092810080918100826038
:100FC0008093810080918100816080938100809175
:100FD00080008160809380008091B1008460809364
:100FE000B1008091B00081608093B00080917A0060
:100FF000846080937A0080917A00826080937A0086
:1010000080917A00816080937A0080917A00806874
:1010100080937A001092C100E0914101F091420169
:1010200082E08083E0913D01F0913E011082E091E9
:101030003F01F09140018FEC808310924901E091D3
:101040004501F091460186E08083E0914301F091F3
:101050004401808180618083E0914301F0914401EB
:10106000808188608083E0914301F0914401808118
:1010700080688083E0914301F091440180818F7DFD
:1010800080831FB7F89480912F01811127C0E0E978
:10109000F0E08491E4EAF0E09491E82FF0E0EE0FC4
:1010A000FF1FEE58FF4FA591B491EC91E92321F475
:1010B00061E08AE00E94C50161E08AE00E94F401DB
:1010C0008CB580618CBD8CB580648CBD61E08DE099
:1010D0000E94F40161E08BE00E94F40180912F01F5
:1010E0008F5F80932F011FBF61E08091DC010E9420
:1010F000F40161E08091DC010E94C5018091DD0175
:101100008F3F41F44FE062E08EEC91E00E94F802E4
:1011100013E025C060E00E94F4012091DD0130E081
:10112000F901E255FF4F8491F901E656FF4F049112
:10113000F901EA57FF4F14911123F9F081110E9430
:101140009C01E12FF0E0EE0FFF1FE458FF4FA59147
:10115000B491EC91E02389F0D5CF115039F162E3DD
:1011600070E080E090E00E94550262E08EEC91E039
:101170000E94DA0284FF1AC0F0CF61E08091DD01A5
:101180000E94F40160E08091DD010E94C50183E0CE
:1011900090E00197F1F761E08091DD010E94C501C7
:1011A00062E370E080E090E00E94550240E064E27B
:1011B0008EEC91E00E94F80240E066E28EEC91E055
:1011C0000E94F80246E268E48EEC91E00E94F80288
:1011D00040E864E58EEC91E00E94F80249EA66E599
:1011E0008EEC91E00E94F80243E068E58EEC91E01D
:1011F0000E94F80248EE6AE58EEC91E00E94F80247
:1012000040E46AE28EEC91E00E94F8024DE362E273
:101210008EEC91E00E94F80268E28EEC91E00E9470
:10122000DA02982F9370933039F0482F436068E2C8
:101230008EEC91E00E94F8028E010F5F1F4F8EEC42
:1012400091E00E947004882309F4A7C08EEC91E01D
:101250000E948F02882309F4A0C0198A188A1B8A69
:101260001A8A1D8A1C8A40E050E065E271E0CE01D6
:1012700040960E94BB06F12C8091D001F81608F030
:101280004EC08F2D90E09C0122533E4F6901F90121
:101290008381803118F064E271E002C062E271E0A3
:1012A0001A8219821C821B821E821D8241E050E03C
:1012B000C8010E94BB064D815E8169817A81CE01A1
:1012C00040960E948D0689819A810E94CF0AF6017C
:1012D00083811B861A861D861C861F861E8640E11A
:1012E000B80190E00E94D009F80101900020E9F7D0
:1012F0003197AF01401B510BB801CE010A960E94F5
:10130000BB064E855F856A857B85CE0140960E942F
:101310008D068A859B850E94CF0AF394ADCFE8881D
:10132000F988E114F10419F4E12CF12C23C0F70140
:1013300080818823C9F3082E000C990B0E94230C8E
:10134000F70181937F01F3CFE889F9893097C1F4E0
:1013500010923001E0E3F1E0608181E391E00E94CE
:10136000230162E370E080E090E00E945502FFEF0D
:10137000EF1AFF0A8C899D89E816F90628F303C045
:10138000EE0DFF1DE9CF68E873E180E090E00E9478
:101390005502888999890E94CF0A0E9492014FCFF5
:1013A000BB27FB015527AA27880F991FAA1FA4173F
:1013B00010F0A41B83955051B9F7A05DAA3308F033
:1013C000A95DA193009779F7B111B1931192CB0167
:1013D0000C94EA09DC01FC01672F71917723E1F796
:1013E000329704C07C916D9370836291AE17BF07F2
:1013F000C8F308952F923F924F925F926F927F921F
:101400008F929F92AF92BF92CF92DF92EF92FF9214
:101410000F931F93CF93DF93CDB7DEB7CA1BDB0BC0
:101420000FB6F894DEBF0FBECDBF09942A88398865
:1014300048885F846E847D848C849B84AA84B9846C
:10144000C884DF80EE80FD800C811B81AA81B98178
:10145000CE0FD11D0FB6F894DEBF0FBECDBFED018C
:101460000895EE0FFF1F0590F491E02D09940F935E
:101470001F93CF93DF938230910510F482E090E0C8
:10148000E091E001F091E10120E030E0A0E0B0E087
:10149000309719F140815181028113814817590712
:1014A000C8F08417950769F4109731F012960C93E1
:1014B000129713961C9327C00093E0011093E1014B
:1014C00022C02115310519F04217530718F49A016B
:1014D000BD01EF01DF01F801DBCF21153105F9F086
:1014E000281B390B2430310580F48A819B816115DA
:1014F000710521F0FB019383828304C09093E10185
:101500008093E001FE01329644C0FE01E20FF31F1A
:101510008193919322503109398328833AC02091D5
:10152000DE013091DF01232B41F420910201309143
:1015300003013093DF012093DE01209100013091FF
:1015400001012115310541F42DB73EB74091040149
:1015500050910501241B350BE091DE01F091DF0174
:10156000E217F307A0F42E1B3F0B2817390778F07A
:10157000AC014E5F5F4F2417350748F04E0F5F1FD9
:101580005093DF014093DE018193919302C0E0E02C
:10159000F0E0CF01DF91CF911F910F910895CF938C
:1015A000DF93009709F481C0FC0132971382128205
:1015B000A091E001B091E101109781F42081318187
:1015C000820F931F2091DE013091DF012817390728
:1015D00051F5F093DF01E093DE0167C0ED0120E0FB
:1015E00030E0CE17DF0740F44A815B819E01411550
:1015F0005105F1F0EA01F5CFD383C28340815181D7
:10160000840F951FC817D90759F488819981840FD1
:10161000951F0296918380838A819B819383828325
:101620002115310529F4F093E101E093E0013DC07B
:10163000E901FB83EA8349915991C40FD51FEC1747
:10164000FD0761F480819181840F951F0296E90165
:1016500099838883828193819B838A83E0E0F0E091
:1016600012968D919C911397009719F0FD01DC0162
:10167000F7CF8D919C9111979D012E5F3F4F820F67
:10168000931F2091DE013091DF012817390769F49B
:10169000309729F41092E1011092E00102C0138208
:1016A0001282B093DF01A093DE01DF91CF91089504
:1016B000A0E0B0E0EEE5FBE00C94FE09EC01009741
:1016C00021F4CB010E94370AB4C0FC01E60FF71FDA
:1016D0009C0122503109E217F30708F4A8C0D90190
:1016E0000D911C91119706171707B0F005301105E1
:1016F00008F49BC0C80104978617970708F495C0A3
:1017000002501109061B170B019311936D937C93E3
:10171000CF010E94CF0A89C05B01A01AB10A4C0117
:10172000800E911EA091E001B091E101612C712C1D
:10173000E12CF12C109709F446C08D919C911197E2
:10174000A815B905B1F56C0142E0C40ED11CCA144C
:10175000DB0478F14C018A189B08640142E0C40E56
:10176000D11C1296BC9012971396AC91B5E0CB1693
:10177000D10440F0B282A38391828082D9016D931B
:101780007C9309C00E5F1F4F800F911FF901918359
:101790008083EB2DFA2FE114F10431F0D701139679
:1017A000FC93EE93129741C0F093E101E093E001C6
:1017B0003CC06816790608F43C017D0112960D9034
:1017C000BC91A02DB7CF8091DE019091DF018816EA
:1017D0009906E1F466167706C8F4809100019091AD
:1017E0000101009741F48DB79EB7409104015091DB
:1017F0000501841B950BE817F907C8F4F093DF0186
:10180000E093DE01F901718360830FC0CB010E9478
:10181000370A7C01009759F0A801BE010E942B0CE9
:10182000CE010E94CF0AC70104C0CE0102C080E0F1
:1018300090E0CDB7DEB7EEE00C941A0A81E090E0BC
:10184000F8940C943B0C9111089581568A5108F438
:10185000805285580895FB01DC0102C001900D9271
:1018600041505040D8F70895FB01DC0101900D92E2
:0A1870000020E1F70895F894FFCF7F
:10187A000000E20180000000000023018C00BA0091
:10188A007001EB00C900DD0000000000D8047004FC
:06189A008F023000200067
:00000001FF
